---
title: 如何使用比特币钱包 Bitcoin Core + 多签名地址交易
date: 2017-12-02 15:16:18
tags:
  - 区块链
  - 比特币

categories: 技术
---
比特币有许多种钱包，本文介绍的是比特币核心社区（去中心化的比特币没有官方）开发的钱包[Bitcoin Core](https://bitcoin.org/en/bitcoin-core/)，之所以选择这个钱包，有几点原因：1.代码开源，可以审计；2.使用人数多，安全性较强；3.开发者相对靠谱。
## 一、 下载钱包
该钱包支持Windows(64bit／32bit)、Linux、MAC OS X和Ubuntu，到[下载页面](https://bitcoin.org/en/download)可以选择对应版本下载。本文使用的版本是MAC OS X版本。

## 二、使用钱包
### 2.1 数据存储
第一次使用钱包的时候，会要求你选择一个地址来存储数据，默认地址是
> ~/Library/Application Support/Bitcoin/  

也可以自己选择路径存放。其中的数据主要有bitcoin.conf存放配置信息，blocks文件夹存放历史区块，chainstate文件夹存放链的状态信息，peers.dat存放相邻节点信息，testnet3文件夹存放测试网络数据，regtest文件夹存放本地私有网络数据，debug.log存放调试信息。

### 2.2 配置钱包
> \##  
> \## bitcoin.conf configuration file. Lines beginning with \# are comments.  
> \##  
> \# Network-related settings:

> \# Run on the test network instead of the real bitcoin network.  
> \#testnet=0

> \# Run a regression test network  
> \#regtest=0

> \# Connect via a SOCKS5 proxy  
> \#proxy=127.0.0.1:9050

> \# Bind to given address and always listen on it. Use [host]:port notation for IPv6  
> \#bind=<addr>  

> \# Bind to given address and whitelist peers connecting to it. Use [host]:port notation for IPv6  
> \#whitebind=<addr>   

> \# Use as many addnode= settings as you like to connect to specific peers
> \#addnode=69.164.218.197  
> \#addnode=10.0.0.2:8333  

> \# Alternatively use as many connect= settings as you like to connect ONLY to specific peers  
> \#connect=69.164.218.197  
> \#connect=10.0.0.1:8333  

> \# Listening mode, enabled by default except when 'connect' is being used  
> \#listen=1

> \# Maximum number of inbound+outbound connections.
> \#maxconnections=

> \#  
> \# JSON-RPC options (for controlling a running Bitcoin/bitcoind process)  
> \#

> \# server=1 tells Bitcoin-Qt and bitcoind to accept JSON-RPC commands  
> \#server=0

> \# Bind to given address to listen for JSON-RPC connections. Use [host]:port notation for IPv6.  
> \# This option can be specified multiple times (default: bind to all interfaces)  
> \#rpcbind= &lt;addr>

> \# If no rpcpassword is set, rpc cookie auth is sought. The default \`-rpccookiefile\` name  
> \# is .cookie and found in the \`-datadir\` being used for bitcoind. This option is typically used  
> \# when the server and client are run as the same user.  
> \#  
> \# If not, you must set rpcuser and rpcpassword to secure the JSON-RPC api. The first  
> \# method(DEPRECATED) is to set this pair for the server and client:  
> \#rpcuser=Ulysseys  
> \#rpcpassword=YourSuperGreatPasswordNumber
> \#    
> \# The second method \`rpcauth\` can be added to server startup argument. It is set at initialization time  
> \# using the output from the script in share/rpcuser/rpcuser.py after providing a username:  
> \#  
> \# ./share/rpcuser/rpcuser.py alice  
> \# String to be appended to bitcoin.conf:  
> \#   rpcauth=alice:f7efda5c189b999524f151318c0c86$d5b51b3beffbc02b724e5d095828e0bc8b2456e9ac8757ae3211a5d9b16a22ae  
> \# Your password:
> \# DONT_USE_THIS_YOU_WILL_GET_ROBBED_8ak1gI25KFTvjovL3gAM967mies3E=
> \#
> \# On client-side, you add the normal user/password pair to send commands:
> \#rpcuser=alice
> \#rpcpassword=DONT_USE_THIS_YOU_WILL_GET_ROBBED_8ak1gI25KFTvjovL3gAM967mies3E=
> \#
> \# You can even add multiple entries of these to the server conf file, and client can use any of them:
> \# rpcauth=bob:b2dd077cb54591a2f3139e69a897ac$4e71f08d48b4347cf8eff3815c0e25ae2e9a4340474079f55705f40574f4ec99

> \# How many seconds bitcoin will wait for a complete RPC HTTP request.  
> \# after the HTTP connection is established.  
> \#rpcclienttimeout=30

> \# By default, only RPC connections from localhost are allowed.  
> \# Specify as many rpcallowip= settings as you like to allow connections from other hosts,  
> \# either as a single IPv4/IPv6 or with a subnet specification.  

> \# NOTE: opening up the RPC port to hosts outside your local trusted network is NOT RECOMMENDED,  
> \# because the rpcpassword is transmitted over the network unencrypted.

> \# server=1 tells Bitcoin-Qt to accept JSON-RPC commands.  
> \# it is also read by bitcoind to determine if RPC should be enabled  
> \#rpcallowip=10.1.1.34/255.255.255.0  
> \#rpcallowip=1.2.3.4/24  
> \#rpcallowip=2001:db8:85a3:0:0:8a2e:370:7334/96

> \# Listen for RPC connections on this TCP port:  
> \#rpcport=8332

> \# You can use Bitcoin or bitcoind to send commands to Bitcoin/bitcoind  
> \# running on another host using this option:  
> \#rpcconnect=127.0.0.1

> \# Create transactions that have enough fees so they are likely to begin confirmation within n blocks (default: 6).  
> \# This setting is over-ridden by the -paytxfee option.  
> \#txconfirmtarget=n

> \# Miscellaneous options  

> \# Pre-generate this many public/private key pairs, so wallet backups will be valid for  
> \# both prior transactions and several dozen future transactions.  
> \#keypool=100

> \# Pay an optional transaction fee every time you send bitcoins.    Transactions with fees  
> \# are more likely than free transactions to be included in generated blocks, so may   
> \# be validated sooner.  
> \#paytxfee=0.00

> \# Enable pruning to reduce storage requirements by deleting old blocks.  
> \# This mode is incompatible with -txindex and -rescan.  
> \# 0 = default (no pruning).  
> \# 1 = allows manual pruning via RPC.  
> \# >=550 = target to stay under in MiB.  
> \#prune=550

> \# User interface options

> \# Start Bitcoin minimized  
> \#min=1

> \# Minimize to the system tray  
> \#minimizetotray=1

本文的实验中只用设置
> testnet=1  
> server=1  
> rpcuser=[your_username]  
> rpcpassword=[your_password]  
> rpcport=8332

即可，表示运行在测试网络中,并且可以用RPC命令控制钱包软件，方便我们后面获取更详细信息。

### 2.3 建立账户
打开钱包软件后会自动同步历史区块数据，并且建立默认账户""，点击菜单栏**Help**选项，点击**Debug window**选项，可以看到一些基本信息，点击**Console**进入命令行控制界面，可以通过命令来控制钱包软件，获取相应信息，做出更多操作。  
输入**help**指令可以看到所有的命令以及参数信息。  
其中**listaccounts**命令可以看到账户余额信息，初始情况是0。  
用**getnewaddress**命令可以生成一个新的地址，比如返回*moaMYNv84hYFv2qW41rjT23DcWHf4e6kx1*  
然后用**dumpprivkey** *moaMYNv84hYFv2qW41rjT23DcWHf4e6kx1* 命令可以得到该地址的私钥:  
*cTrM7DH1soenjhity34Lkv8z8ECDp9r2Yghkexx3sHTrhT885jqp*  
用**validateaddress** *moaMYNv84hYFv2qW41rjT23DcWHf4e6kx1* 命令可以得到该地址的其他信息，主要能得到“pubkey”字段公钥信息:  
*02543930d9d081a96afa78cb8cceaa5566a7af7369abf71e855b95742ef60dca22*  

一个钱包有多个账户，一个账户有多个地址，可以生成若干新地址，而每次转账出去之后余额也会自动打入到新生成的地址中去，因此钱包备份了之后一旦发生了转出交易，一定要重新备份钱包，否则数据故障后，原来备份的地址中没有比特币，而拥有比特币的新地址无法找回。

### 2.4 发起交易
接受交易不用进行任何操作，只用将地址告诉别人即可。  
而转账交易可以直接用钱包的UI界面，将地址、金额、矿工费信息填入即可，也可以使用命令行操作。
最简单的命令 **sendtoaddress** 直接指定收款地址和转账金额即可，该命令返回交易的id。  
如果想自己指定由哪个地址进行转账，使用命令 **sendfrom** 填写参数付款地址、收款地址、金额即可。  
如果还要自己指定找零地址，或者要给多个地址转账，使用命令 **sendmany** 填写参数付款地址、多个收款地址和各自金额即可。  
其实生成交易和对交易签名可以分开进行，可以用别人的公钥生成交易，然后发送给对方，然后对方用自己私钥对交易签名，再广播到网络，这一方法也可以用于网络隔绝的钱包。具体操作在下一节中讲解。

### 2.5 多签名交易
比特币允许构建特殊的多签名账户，这种账户收款和正常账户一样，但是需要多个私钥进行签名才能将比特币转出到其他账户。比如我们试图构建的一个(3 to 4)地址，表示要有四个地址中的至少三个地址签名才能转出比特币。  
#### 2.5.1 生成多签名地址
首先用2.3中的方法生成四个地址，并且得到其公私钥对。  
用命令 **createmultisig** 可以生成一个多签名地址，

```
createmultisig 3  
'["02a7fbcb1394b427423983a9125e7c5828b7fb7ff6c5f7a12a477ab501dfdf7523",
"025f737b6ae57e8bdbb8b08e48c0d3b1595d137b97c62600ec518bc00b7a94f9ed",
"03bcd10b49ed04541ee11ebed9899de1c4a677673ee2d0592c77c4632f1e116092",
"035da252974f7bda5d2162b07ce418416ccf2523b64e6ec87e3da493d32a45e8c2"]'
```



3表示至少3个私钥签名才能发出交易，后面的数组填入所有地址的公钥信息，这里是4个公钥。  
然后得到返回的结果  


```
{  
    "address": "2MzFFiFYkay6CRM32w83ZkyoPhxyVkyFF7A",  
    "redeemScript": "532102a7fbcb1394b427423983a9125e7c5828b7fb7ff6c5f7a12a477ab501dfdf752321025f737b6ae57e8bdbb8b08e48c0d3b1595d137b97c62600ec518bc00b7a94f9ed2103bcd10b49ed04541ee11ebed9899de1c4a677673ee2d0592c77c4632f1e11609221035da252974f7bda5d2162b07ce418416ccf2523b64e6ec87e3da493d32a45e8c254ae"  
}
```

*address* 字段即是该多签名地址  
*redeemScript* 字段是后面发送交易时别的矿工验证该交易的脚本信息。

用命令 **addmultisigaddress** 将该地址加入钱包中
```
addmultisigaddress 3  
'["02a7fbcb1394b427423983a9125e7c5828b7fb7ff6c5f7a12a477ab501dfdf7523",
"025f737b6ae57e8bdbb8b08e48c0d3b1595d137b97c62600ec518bc00b7a94f9ed",
"03bcd10b49ed04541ee11ebed9899de1c4a677673ee2d0592c77c4632f1e116092",
"035da252974f7bda5d2162b07ce418416ccf2523b64e6ec87e3da493d32a45e8c2"]'
```
#### 2.5.2 生成原始交易信息
现在这个多签名地址中没有余额，所以先要用别的账户转入比特币，方法和正常转账一样，直接转到这个地址即可。  
记录下交易的id，用命令 **listunspent** 得到该未花费的比特币的具体信息 **UTXO** ，后面的操作会需要。
```
{  
    "txid": "a0bd12f8d69b7251c9fcb46c746197907043235da1b8b21561668e5362afd7b1",  
    "vout": 1,  
    "address": "2MzFFiFYkay6CRM32w83ZkyoPhxyVkyFF7A",  
    "account": "0.01",  
    "redeemScript":   "532102a7fbcb1394b427423983a9125e7c5828b7fb7ff6c5f7a12a477ab501dfdf752321025f737b6ae57e8bdbb8b08e48c0d3b1595d137b97c62600ec518bc00b7a94f9ed2103bcd10b49ed04541ee11ebed9899de1c4a677673ee2d0592c77c4632f1e11609221035da252974f7bda5d2162b07ce418416ccf2523b64e6ec87e3da493d32a45e8c254ae",  
    "scriptPubKey": "a9144cca51baf837e555047313fee942f5029cfaaa9887",  
    "amount": 0.01000000,  
    "confirmations": 2,  
    "spendable": true,  
    "solvable": true,  
    "safe": true  
}
```

然后要从这个地址转出，则需要一些别的步骤。首先用命令 **createrawtransaction** 生成原始交易信息。
```
createrawtransaction  
'[{"txid": "a0bd12f8d69b7251c9fcb46c746197907043235da1b8b21561668e5362afd7b1",
   "vout": 1}]'  
'{"mz1ZaYrsLcocdLXjWcngcy6bUyXT5k4XLb":0.001}'
```
第一个参数是utxo，即未支付的余额，*txid* 和 *vout* 信息是从上一步转账到该多签名地址的交易中提取出来的；第二个参数是要转账的地址和对应的金额。  
返回结果是该交易的16进制数  
```
0200000001b1d7af62538e666115b2b8a15d234370909761746cb4fcc951729bd6f812bda00100000000ffffffff01a0860100000000001976a914cadb5d6fa6bebc16a69c6ad1a9d93e6ee67938bc88ac00000000
```

下一步就是要对该交易用多个私钥进行签名
#### 2.5.3 多私钥对交易签名
具体签名的方法是可以一次用足够多个私钥对该交易进行签名，也可以分多次进行签名，作用是在于可以由多个人来完成对该交易的签名，比如A先用自己私钥完成签名，结果发给B，B再对结果进行签名，B再把签名结果发给C，C对结果进行签名，最终完成对该交易的签名，发送到网络中进行确认。  
先看直接多私钥签名的情况
```
signrawtransaction
 "0200000001b1d7af62538e666115b2b8a15d234370909761746cb4fcc951729bd6f812bda00100000000ffffffff01a0860100000000001976a914cadb5d6fa6bebc16a69c6ad1a9d93e6ee67938bc88ac00000000"  
 '[{"txid":"a0bd12f8d69b7251c9fcb46c746197907043235da1b8b21561668e5362afd7b1",    "vout":1,  
    "scriptPubKey":   "a9144cca51baf837e555047313fee942f5029cfaaa9887",
    "redeemScript": "532102a7fbcb1394b427423983a9125e7c5828b7fb7ff6c5f7a12a477ab501dfdf752321025f737b6ae57e8bdbb8b08e48c0d3b1595d137b97c62600ec518bc00b7a94f9ed2103bcd10b49ed04541ee11ebed9899de1c4a677673ee2d0592c77c4632f1e11609221035da252974f7bda5d2162b07ce418416ccf2523b64e6ec87e3da493d32a45e8c254ae"}]'   
 '["private key 1 ","private key 2"," private key 3 "]'
```
第一个参数是2.5.2中返回的交易原始数据，第二个参数是从2.5.2中得到的 **UTXO** 信息中取出的对应字段值，第三个参数是参与签名的3个合法私钥。  
返回结果为：  
```
{  
"hex":"0200000001b1d7af62538e666115b2b8a15d234370909761746cb4fcc951729bd6f812bda001000000fd680100483045022100d5fb9ec178ca1e791f9e5d04a6ed11ac241d284adff1787d9d775893e2e662ea02205f0044329baf061c2ca90a633b87d17d171f04559728ea9ef9e298e07ac4e47401483045022100ec7009fcbf91de41fb8c5d4e4840c1066bcacae1303afdcb9025728127c2ea96022026e3d00dd94fa26e6a50be62b691ba785052edc71a4ddf20b6b7e8763b6c3e5501473044022061f74f1d86c6135a251eb42fd841ca9397bfdedc61bb6a210d44b9d2ae0a509c02203f1a2b513051ab02f74f39099eda01dea485e5b2d0b8a276f40fb5c346286f80014c8b532102a7fbcb1394b427423983a9125e7c5828b7fb7ff6c5f7a12a477ab501dfdf752321025f737b6ae57e8bdbb8b08e48c0d3b1595d137b97c62600ec518bc00b7a94f9ed2103bcd10b49ed04541ee11ebed9899de1c4a677673ee2d0592c77c4632f1e11609221035da252974f7bda5d2162b07ce418416ccf2523b64e6ec87e3da493d32a45e8c254aeffffffff01a0860100000000001976a914cadb5d6fa6bebc16a69c6ad1a9d93e6ee67938bc88ac00000000",  
"complete": true  
}
```
表示签名成功，可以将该交易广播到网络中了。

分别签名的方法则是先用第一个私钥对交易进行签名
```
signrawtransaction
 "0200000001b1d7af62538e666115b2b8a15d234370909761746cb4fcc951729bd6f812bda00100000000ffffffff01a0860100000000001976a914cadb5d6fa6bebc16a69c6ad1a9d93e6ee67938bc88ac00000000"
 '[{"txid":"a0bd12f8d69b7251c9fcb46c746197907043235da1b8b21561668e5362afd7b1",
   "vout":1,
   "scriptPubKey": "a9144cca51baf837e555047313fee942f5029cfaaa9887",
   "redeemScript": "532102a7fbcb1394b427423983a9125e7c5828b7fb7ff6c5f7a12a477ab501dfdf752321025f737b6ae57e8bdbb8b08e48c0d3b1595d137b97c62600ec518bc00b7a94f9ed2103bcd10b49ed04541ee11ebed9899de1c4a677673ee2d0592c77c4632f1e11609221035da252974f7bda5d2162b07ce418416ccf2523b64e6ec87e3da493d32a45e8c254ae"}]'
 '["private key 1"]'
```
返回结果为
```
{  
  "hex":   "0200000001b1d7af62538e666115b2b8a15d234370909761746cb4fcc951729bd6f812bda001000000d700483045022100d5fb9ec178ca1e791f9e5d04a6ed11ac241d284adff1787d9d775893e2e662ea02205f0044329baf061c2ca90a633b87d17d171f04559728ea9ef9e298e07ac4e474014c8b532102a7fbcb1394b427423983a9125e7c5828b7fb7ff6c5f7a12a477ab501dfdf752321025f737b6ae57e8bdbb8b08e48c0d3b1595d137b97c62600ec518bc00b7a94f9ed2103bcd10b49ed04541ee11ebed9899de1c4a677673ee2d0592c77c4632f1e11609221035da252974f7bda5d2162b07ce418416ccf2523b64e6ec87e3da493d32a45e8c254aeffffffff01a0860100000000001976a914cadb5d6fa6bebc16a69c6ad1a9d93e6ee67938bc88ac00000000",    
  "complete": false,  
  "errors": [  
    {  
      "txid":   "a0bd12f8d69b7251c9fcb46c746197907043235da1b8b21561668e5362afd7b1",  
      "vout": 1,  
      "witness": [  
      ],  
      "scriptSig":   "00483045022100d5fb9ec178ca1e791f9e5d04a6ed11ac241d284adff1787d9d775893e2e662ea02205f0044329baf061c2ca90a633b87d17d171f04559728ea9ef9e298e07ac4e474014c8b532102a7fbcb1394b427423983a9125e7c5828b7fb7ff6c5f7a12a477ab501dfdf752321025f737b6ae57e8bdbb8b08e48c0d3b1595d137b97c62600ec518bc00b7a94f9ed2103bcd10b49ed04541ee11ebed9899de1c4a677673ee2d0592c77c4632f1e11609221035da252974f7bda5d2162b07ce418416ccf2523b64e6ec87e3da493d32a45e8c254ae",  
      "sequence": 4294967295,  
      "error": "Operation not valid with the current stack size"  
    }  
  ]  
}  
```

表示签名的私钥不够，签名未完成。提取出其中的 *hex* 字段，用第二个私钥进一步签名
```
signrawtransaction "0200000001b1d7af62538e666115b2b8a15d234370909761746cb4fcc951729bd6f812bda001000000d700483045022100d5fb9ec178ca1e791f9e5d04a6ed11ac241d284adff1787d9d775893e2e662ea02205f0044329baf061c2ca90a633b87d17d171f04559728ea9ef9e298e07ac4e474014c8b532102a7fbcb1394b427423983a9125e7c5828b7fb7ff6c5f7a12a477ab501dfdf752321025f737b6ae57e8bdbb8b08e48c0d3b1595d137b97c62600ec518bc00b7a94f9ed2103bcd10b49ed04541ee11ebed9899de1c4a677673ee2d0592c77c4632f1e11609221035da252974f7bda5d2162b07ce418416ccf2523b64e6ec87e3da493d32a45e8c254aeffffffff01a0860100000000001976a914cadb5d6fa6bebc16a69c6ad1a9d93e6ee67938bc88ac00000000" '[{"txid":"a0bd12f8d69b7251c9fcb46c746197907043235da1b8b21561668e5362afd7b1",
"vout":1,
"scriptPubKey": "a9144cca51baf837e555047313fee942f5029cfaaa9887",
"redeemScript": "532102a7fbcb1394b427423983a9125e7c5828b7fb7ff6c5f7a12a477ab501dfdf752321025f737b6ae57e8bdbb8b08e48c0d3b1595d137b97c62600ec518bc00b7a94f9ed2103bcd10b49ed04541ee11ebed9899de1c4a677673ee2d0592c77c4632f1e11609221035da252974f7bda5d2162b07ce418416ccf2523b64e6ec87e3da493d32a45e8c254ae"}]'
'["private key 2"]'
```
其中第二个参数用前一步中得到的 *hex* 字段值代替，签名私钥用private key 2代替。  
返回结果还是未完成：
```
{
  "hex": "0200000001b1d7af62538e666115b2b8a15d234370909761746cb4fcc951729bd6f812bda001000000d700483045022100d5fb9ec178ca1e791f9e5d04a6ed11ac241d284adff1787d9d775893e2e662ea02205f0044329baf061c2ca90a633b87d17d171f04559728ea9ef9e298e07ac4e474014c8b532102a7fbcb1394b427423983a9125e7c5828b7fb7ff6c5f7a12a477ab501dfdf752321025f737b6ae57e8bdbb8b08e48c0d3b1595d137b97c62600ec518bc00b7a94f9ed2103bcd10b49ed04541ee11ebed9899de1c4a677673ee2d0592c77c4632f1e11609221035da252974f7bda5d2162b07ce418416ccf2523b64e6ec87e3da493d32a45e8c254aeffffffff01a0860100000000001976a914cadb5d6fa6bebc16a69c6ad1a9d93e6ee67938bc88ac00000000",
  "complete": false,
  "errors": [
    {
      "txid": "a0bd12f8d69b7251c9fcb46c746197907043235da1b8b21561668e5362afd7b1",
      "vout": 1,
      "witness": [
      ],
      "scriptSig": "00483045022100d5fb9ec178ca1e791f9e5d04a6ed11ac241d284adff1787d9d775893e2e662ea02205f0044329baf061c2ca90a633b87d17d171f04559728ea9ef9e298e07ac4e474014c8b532102a7fbcb1394b427423983a9125e7c5828b7fb7ff6c5f7a12a477ab501dfdf752321025f737b6ae57e8bdbb8b08e48c0d3b1595d137b97c62600ec518bc00b7a94f9ed2103bcd10b49ed04541ee11ebed9899de1c4a677673ee2d0592c77c4632f1e11609221035da252974f7bda5d2162b07ce418416ccf2523b64e6ec87e3da493d32a45e8c254ae",
      "sequence": 4294967295,
      "error": "Operation not valid with the current stack size"
    }
  ]
}
```
记录下 *hex* 字段值，用第三个私钥进一步签名
```
signrawtransaction "0200000001b1d7af62538e666115b2b8a15d234370909761746cb4fcc951729bd6f812bda001000000fd210100483045022100d5fb9ec178ca1e791f9e5d04a6ed11ac241d284adff1787d9d775893e2e662ea02205f0044329baf061c2ca90a633b87d17d171f04559728ea9ef9e298e07ac4e47401483045022100ec7009fcbf91de41fb8c5d4e4840c1066bcacae1303afdcb9025728127c2ea96022026e3d00dd94fa26e6a50be62b691ba785052edc71a4ddf20b6b7e8763b6c3e5501004c8b532102a7fbcb1394b427423983a9125e7c5828b7fb7ff6c5f7a12a477ab501dfdf752321025f737b6ae57e8bdbb8b08e48c0d3b1595d137b97c62600ec518bc00b7a94f9ed2103bcd10b49ed04541ee11ebed9899de1c4a677673ee2d0592c77c4632f1e11609221035da252974f7bda5d2162b07ce418416ccf2523b64e6ec87e3da493d32a45e8c254aeffffffff01a0860100000000001976a914cadb5d6fa6bebc16a69c6ad1a9d93e6ee67938bc88ac00000000"
'[{"txid":"a0bd12f8d69b7251c9fcb46c746197907043235da1b8b21561668e5362afd7b1",
   "vout":1,
   "scriptPubKey": "a9144cca51baf837e555047313fee942f5029cfaaa9887",
   "redeemScript": "532102a7fbcb1394b427423983a9125e7c5828b7fb7ff6c5f7a12a477ab501dfdf752321025f737b6ae57e8bdbb8b08e48c0d3b1595d137b97c62600ec518bc00b7a94f9ed2103bcd10b49ed04541ee11ebed9899de1c4a677673ee2d0592c77c4632f1e11609221035da252974f7bda5d2162b07ce418416ccf2523b64e6ec87e3da493d32a45e8c254ae"}]'
'["private key 3"]'
```
签名完成，返回结果为
```
{
  "hex": "0200000001b1d7af62538e666115b2b8a15d234370909761746cb4fcc951729bd6f812bda001000000fd680100483045022100d5fb9ec178ca1e791f9e5d04a6ed11ac241d284adff1787d9d775893e2e662ea02205f0044329baf061c2ca90a633b87d17d171f04559728ea9ef9e298e07ac4e47401483045022100ec7009fcbf91de41fb8c5d4e4840c1066bcacae1303afdcb9025728127c2ea96022026e3d00dd94fa26e6a50be62b691ba785052edc71a4ddf20b6b7e8763b6c3e5501473044022061f74f1d86c6135a251eb42fd841ca9397bfdedc61bb6a210d44b9d2ae0a509c02203f1a2b513051ab02f74f39099eda01dea485e5b2d0b8a276f40fb5c346286f80014c8b532102a7fbcb1394b427423983a9125e7c5828b7fb7ff6c5f7a12a477ab501dfdf752321025f737b6ae57e8bdbb8b08e48c0d3b1595d137b97c62600ec518bc00b7a94f9ed2103bcd10b49ed04541ee11ebed9899de1c4a677673ee2d0592c77c4632f1e11609221035da252974f7bda5d2162b07ce418416ccf2523b64e6ec87e3da493d32a45e8c254aeffffffff01a0860100000000001976a914cadb5d6fa6bebc16a69c6ad1a9d93e6ee67938bc88ac00000000",
  "complete": true
}
```
该方法最终得到的 *hex* 字段值和前一方法得到的相同。

#### 2.5.4 广播签名成功的交易
用命令 **sendrawtransaction** 即可将成功签名后的交易广播到网络。
```
sendrawtransaction  
0200000001b1d7af62538e666115b2b8a15d234370909761746cb4fcc951729bd6f812bda001000000fd680100483045022100d5fb9ec178ca1e791f9e5d04a6ed11ac241d284adff1787d9d775893e2e662ea02205f0044329baf061c2ca90a633b87d17d171f04559728ea9ef9e298e07ac4e47401483045022100ec7009fcbf91de41fb8c5d4e4840c1066bcacae1303afdcb9025728127c2ea96022026e3d00dd94fa26e6a50be62b691ba785052edc71a4ddf20b6b7e8763b6c3e5501473044022061f74f1d86c6135a251eb42fd841ca9397bfdedc61bb6a210d44b9d2ae0a509c02203f1a2b513051ab02f74f39099eda01dea485e5b2d0b8a276f40fb5c346286f80014c8b532102a7fbcb1394b427423983a9125e7c5828b7fb7ff6c5f7a12a477ab501dfdf752321025f737b6ae57e8bdbb8b08e48c0d3b1595d137b97c62600ec518bc00b7a94f9ed2103bcd10b49ed04541ee11ebed9899de1c4a677673ee2d0592c77c4632f1e11609221035da252974f7bda5d2162b07ce418416ccf2523b64e6ec87e3da493d32a45e8c254aeffffffff01a0860100000000001976a914cadb5d6fa6bebc16a69c6ad1a9d93e6ee67938bc88ac00000000
```
参数是2.5.3中成功签名后返回的交易 *hex* 值。
成功则返回该交易的id：  
*f06bd1fcc86f31403a40437c9d5b9c5f0a44b2e784d958386a06eb29f0135887*

PS :   
查询比特币主链区块信息到：https://blockexplorer.com/  
查询测试网络区块信息可以到：https://testnet.blockexplorer.com/
